:0600000000F029EF00F002
:10000800FFFF0282F2A20BEF00F00EEF00F0FFFFFD
:1000180024EF00F0FFFF89B214EF00F018EF00F0B2
:10002800FFFF010E1AEF00F0FFFF000EFFFFFF0AAF
:10003800016E014689500118FD0B0118896EF29274
:10004800FFFF02921100FFFFFFFF38EF00F0FFFFF4
:10005800F28EF28CF288F19C000E926EFFFF89906E
:1000680032EF00F029EF00F00290029200012BEF2E
:0400780000F0FFFF96
:020000040020DA
:08000000FFFFFFFFFFFFFFFF00
:020000040030CA
:04000000FF220D0EC0
:0800060080FF0FC00FE00F4066
:00000001FF
